{
  "contractName": "FreelancePlatform",
  "abi": [
    {
      "inputs": [],
      "name": "jobCount",
      "outputs": [
        {
          "internalType": "uint256",
          "name": "",
          "type": "uint256"
        }
      ],
      "stateMutability": "view",
      "type": "function",
      "constant": true
    },
    {
      "inputs": [
        {
          "internalType": "uint256",
          "name": "",
          "type": "uint256"
        }
      ],
      "name": "jobs",
      "outputs": [
        {
          "internalType": "uint256",
          "name": "id",
          "type": "uint256"
        },
        {
          "internalType": "string",
          "name": "title",
          "type": "string"
        },
        {
          "internalType": "string",
          "name": "description",
          "type": "string"
        },
        {
          "internalType": "uint256",
          "name": "payment",
          "type": "uint256"
        },
        {
          "internalType": "address payable",
          "name": "client",
          "type": "address"
        },
        {
          "internalType": "address payable",
          "name": "freelancer",
          "type": "address"
        },
        {
          "internalType": "bool",
          "name": "isCompleted",
          "type": "bool"
        }
      ],
      "stateMutability": "view",
      "type": "function",
      "constant": true
    },
    {
      "inputs": [
        {
          "internalType": "string",
          "name": "_title",
          "type": "string"
        },
        {
          "internalType": "string",
          "name": "_description",
          "type": "string"
        },
        {
          "internalType": "uint256",
          "name": "_payment",
          "type": "uint256"
        }
      ],
      "name": "postJob",
      "outputs": [],
      "stateMutability": "nonpayable",
      "type": "function"
    },
    {
      "inputs": [
        {
          "internalType": "uint256",
          "name": "_jobId",
          "type": "uint256"
        }
      ],
      "name": "applyForJob",
      "outputs": [],
      "stateMutability": "nonpayable",
      "type": "function"
    },
    {
      "inputs": [
        {
          "internalType": "uint256",
          "name": "_jobId",
          "type": "uint256"
        }
      ],
      "name": "completeJob",
      "outputs": [],
      "stateMutability": "nonpayable",
      "type": "function"
    }
  ],
  "bytecode": "0x60806040526000805534801561001457600080fd5b50610d82806100246000396000f3fe608060405234801561001057600080fd5b50600436106100575760003560e01c8063180aedf31461005c5780634c5d8a0f146100925780635c3b9c4a146100b0578063a1c0d32f146100cc578063e0c94ae5146100e8575b600080fd5b610076600480360381019061007191906107a6565b610104565b60405161008997969594939291906108d7565b60405180910390f35b61009a6102a3565b6040516100a79190610954565b60405180910390f35b6100ca60048036038101906100c59190610aa4565b6102a9565b005b6100e660048036038101906100e191906107a6565b61043d565b005b61010260048036038101906100fd91906107a6565b6105c8565b005b600160205280600052604060002060009150905080600001549080600101805461012d90610b5e565b80601f016020809104026020016040519081016040528092919081815260200182805461015990610b5e565b80156101a65780601f1061017b576101008083540402835291602001916101a6565b820191906000526020600020905b81548152906001019060200180831161018957829003601f168201915b5050505050908060020180546101bb90610b5e565b80601f01602080910402602001604051908101604052809291908181526020018280546101e790610b5e565b80156102345780601f1061020957610100808354040283529160200191610234565b820191906000526020600020905b81548152906001019060200180831161021757829003601f168201915b5050505050908060030154908060040160009054906101000a900473ffffffffffffffffffffffffffffffffffffffff16908060050160009054906101000a900473ffffffffffffffffffffffffffffffffffffffff16908060050160149054906101000a900460ff16905087565b60005481565b6000808154809291906102bb90610bbf565b91905055506040518060e0016040528060005481526020018481526020018381526020018281526020013373ffffffffffffffffffffffffffffffffffffffff168152602001600073ffffffffffffffffffffffffffffffffffffffff16815260200160001515815250600160008054815260200190815260200160002060008201518160000155602082015181600101908051906020019061035f9291906106b9565b50604082015181600201908051906020019061037c9291906106b9565b506060820151816003015560808201518160040160006101000a81548173ffffffffffffffffffffffffffffffffffffffff021916908373ffffffffffffffffffffffffffffffffffffffff16021790555060a08201518160050160006101000a81548173ffffffffffffffffffffffffffffffffffffffff021916908373ffffffffffffffffffffffffffffffffffffffff16021790555060c08201518160050160146101000a81548160ff021916908315150217905550905050505050565b60006001600083815260200190815260200160002090508060040160009054906101000a900473ffffffffffffffffffffffffffffffffffffffff1673ffffffffffffffffffffffffffffffffffffffff163373ffffffffffffffffffffffffffffffffffffffff16146104e6576040517f08c379a00000000000000000000000000000000000000000000000000000000081526004016104dd90610c54565b60405180910390fd5b8060050160149054906101000a900460ff1615610538576040517f08c379a000000000000000000000000000000000000000000000000000000000815260040161052f90610cc0565b60405180910390fd5b60018160050160146101000a81548160ff0219169083151502179055508060050160009054906101000a900473ffffffffffffffffffffffffffffffffffffffff1673ffffffffffffffffffffffffffffffffffffffff166108fc82600301549081150290604051600060405180830381858888f193505050501580156105c3573d6000803e3d6000fd5b505050565b6000600160008381526020019081526020016000209050600073ffffffffffffffffffffffffffffffffffffffff168160050160009054906101000a900473ffffffffffffffffffffffffffffffffffffffff1673ffffffffffffffffffffffffffffffffffffffff1614610672576040517f08c379a000000000000000000000000000000000000000000000000000000000815260040161066990610d2c565b60405180910390fd5b338160050160006101000a81548173ffffffffffffffffffffffffffffffffffffffff021916908373ffffffffffffffffffffffffffffffffffffffff1602179055505050565b8280546106c590610b5e565b90600052602060002090601f0160209004810192826106e7576000855561072e565b82601f1061070057805160ff191683800117855561072e565b8280016001018555821561072e579182015b8281111561072d578251825591602001919060010190610712565b5b50905061073b919061073f565b5090565b5b80821115610758576000816000905550600101610740565b5090565b6000604051905090565b600080fd5b600080fd5b6000819050919050565b61078381610770565b811461078e57600080fd5b50565b6000813590506107a08161077a565b92915050565b6000602082840312156107bc576107bb610766565b5b60006107ca84828501610791565b91505092915050565b6107dc81610770565b82525050565b600081519050919050565b600082825260208201905092915050565b60005b8381101561081c578082015181840152602081019050610801565b8381111561082b576000848401525b50505050565b6000601f19601f8301169050919050565b600061084d826107e2565b61085781856107ed565b93506108678185602086016107fe565b61087081610831565b840191505092915050565b600073ffffffffffffffffffffffffffffffffffffffff82169050919050565b60006108a68261087b565b9050919050565b6108b68161089b565b82525050565b60008115159050919050565b6108d1816108bc565b82525050565b600060e0820190506108ec600083018a6107d3565b81810360208301526108fe8189610842565b905081810360408301526109128188610842565b905061092160608301876107d3565b61092e60808301866108ad565b61093b60a08301856108ad565b61094860c08301846108c8565b98975050505050505050565b600060208201905061096960008301846107d3565b92915050565b600080fd5b600080fd5b7f4e487b7100000000000000000000000000000000000000000000000000000000600052604160045260246000fd5b6109b182610831565b810181811067ffffffffffffffff821117156109d0576109cf610979565b5b80604052505050565b60006109e361075c565b90506109ef82826109a8565b919050565b600067ffffffffffffffff821115610a0f57610a0e610979565b5b610a1882610831565b9050602081019050919050565b82818337600083830152505050565b6000610a47610a42846109f4565b6109d9565b905082815260208101848484011115610a6357610a62610974565b5b610a6e848285610a25565b509392505050565b600082601f830112610a8b57610a8a61096f565b5b8135610a9b848260208601610a34565b91505092915050565b600080600060608486031215610abd57610abc610766565b5b600084013567ffffffffffffffff811115610adb57610ada61076b565b5b610ae786828701610a76565b935050602084013567ffffffffffffffff811115610b0857610b0761076b565b5b610b1486828701610a76565b9250506040610b2586828701610791565b9150509250925092565b7f4e487b7100000000000000000000000000000000000000000000000000000000600052602260045260246000fd5b60006002820490506001821680610b7657607f821691505b60208210811415610b8a57610b89610b2f565b5b50919050565b7f4e487b7100000000000000000000000000000000000000000000000000000000600052601160045260246000fd5b6000610bca82610770565b91507fffffffffffffffffffffffffffffffffffffffffffffffffffffffffffffffff821415610bfd57610bfc610b90565b5b600182019050919050565b7f4f6e6c7920636c69656e742063616e206d61726b20636f6d706c657465000000600082015250565b6000610c3e601d836107ed565b9150610c4982610c08565b602082019050919050565b60006020820190508181036000830152610c6d81610c31565b9050919050565b7f4a6f6220616c726561647920636f6d706c657465640000000000000000000000600082015250565b6000610caa6015836107ed565b9150610cb582610c74565b602082019050919050565b60006020820190508181036000830152610cd981610c9d565b9050919050565b7f4a6f6220616c72656164792074616b656e000000000000000000000000000000600082015250565b6000610d166011836107ed565b9150610d2182610ce0565b602082019050919050565b60006020820190508181036000830152610d4581610d09565b905091905056fea2646970667358221220a8794263c7d888468891cd8fece312e5dce245d6eb39fecd8791346b17c2265d64736f6c63430008080033",
  "immutableReferences": {},
  "source": "// SPDX-License-Identifier: MIT\r\npragma solidity ^0.8.0;\r\n\r\ncontract FreelancePlatform {\r\n    struct Job {\r\n        uint id;\r\n        string title;\r\n        string description;\r\n        uint payment;\r\n        address payable client;\r\n        address payable freelancer;\r\n        bool isCompleted;\r\n    }\r\n\r\n    uint public jobCount = 0;\r\n    mapping(uint => Job) public jobs;\r\n\r\n    // Function to post a new job\r\n    function postJob(string memory _title, string memory _description, uint _payment) public {\r\n        jobCount++;\r\n        jobs[jobCount] = Job(jobCount, _title, _description, _payment, payable(msg.sender), payable(address(0)), false);\r\n    }\r\n\r\n    // Function to apply for a job\r\n    function applyForJob(uint _jobId) public {\r\n        Job storage job = jobs[_jobId];\r\n        require(job.freelancer == address(0), \"Job already taken\");\r\n        job.freelancer = payable(msg.sender);\r\n    }\r\n\r\n    // Function to complete a job\r\n    function completeJob(uint _jobId) public {\r\n        Job storage job = jobs[_jobId];\r\n        require(msg.sender == job.client, \"Only client can mark complete\");\r\n        require(!job.isCompleted, \"Job already completed\");\r\n        job.isCompleted = true;\r\n        job.freelancer.transfer(job.payment);\r\n    }\r\n}\r\n",
  "sourcePath": "C:\\Users\\91829\\Desktop\\gitcoin\\gitcoin\\backend\\contracts\\MyContract.sol",
  "compiler": {
    "name": "solc",
    "version": "0.8.8+commit.dddeac2f.Emscripten.clang"
  },
  "schemaVersion": "3.4.16",
  "updatedAt": "2025-03-12T07:24:26.845Z",
  "networkType": "ethereum",
  "devdoc": {
    "kind": "dev",
    "methods": {},
    "version": 1
  },
  "userdoc": {
    "kind": "user",
    "methods": {},
    "version": 1
  }
}